:020000040800F2
:1000000000800020CD3200084D1100084F1100087B
:10001000511100085311000855110008000000009C
:100020000000000000000000000000005711000860
:1000300059110008000000005B1100085D11000864
:100040001D3300081D3300081D3300081D33000850
:100050001D3300081D3300081D3300081D33000840
:100060001D3300081D3300081D3300081D33000830
:100070001D3300081D3300081D3300081D33000820
:100080001D330008000000001D3300081D33000868
:100090001D3300081D3300081D3300081D33000800
:1000A0001D3300081D3300081D3300081D330008F0
:1000B0001D3300081D3300081D3300081D330008E0
:1000C0001D3300081D3300081D3300081D330008D0
:1000D0001D3300081D3300081D3300081D330008C0
:1000E0001D3300081D3300081D3300081D330008B0
:1000F0001D3300081D3300081D33000800000000F8
:10010000000000001D330008000000001D3300083F
:100110001D330008000000001D3300081D330008D7
:100120001D3300081D3300081D3300081D3300086F
:100130001D33000800000000000000001D3300080F
:100140001D3300081D3300080000000000000000FF
:10015000000000000000000000000000000000009F
:100160000000000000000000000000001D33000837
:100170001D33000800000000000000000000000027
:10018000000000001D330008000000000000000017
:10019000000000000000000000000000000000005F
:1001A00000000000000000001D3300081D3300089F
:1001B0001D3300081D3300081D3300080000000037
:1001C000000000001D3300080000000000000000D7
:0801D0001D3300081D33000877
:1001E00001F0FF01102A2BDB10F0070F08D010F8E8
:1001F000013B013A8B422DD010F0070F42B3F6D1EC
:10020000F0B441EA012141EA014122F007047FF004
:1002100000070023F0E80256083C85EA010586EA5B
:10022000010685FA47F5A3FA87F586FA47F6A5FA97
:1002300087F68EB9EED1F0BC01F0FF0102F00702A3
:1002400032B110F8013B013A83EA010313B1F8D14E
:100250000020704701387047002D06BF354603382F
:10026000073815F0010F07D1013015F4807F02BF68
:10027000013015F4C03F01300138F0BC704700BFB9
:10028000034613F8012B002AFBD1181A01387047D6
:1002900081F0004102E000BF83F0004330B54FEA37
:1002A00041044FEA430594EA050F08BF90EA020FA4
:1002B0001FBF54EA000C55EA020C7FEA645C7FEA37
:1002C000655C00F0E2804FEA5454D4EB5555B8BF5A
:1002D0006D420CDD2C4480EA020281EA030382EACB
:1002E000000083EA010180EA020281EA0303362D5D
:1002F00088BF30BD11F0004F4FEA01314FF4801C30
:100300004CEA113102D0404261EB410113F0004F41
:100310004FEA03334CEA133302D0524263EB4303F8
:1003200094EA050F00F0A780A4F10104D5F1200E96
:100330000DDB02FA0EFC22FA05F2801841F10001F1
:1003400003FA0EF2801843FA05F359410EE0A5F1C5
:1003500020050EF1200E012A03FA0EFC28BF4CF0F6
:10036000020C43FA05F3C01851EBE37101F00045AC
:1003700007D54FF0000EDCF1000C7EEB00006EEBB9
:100380000101B1F5801F1BD3B1F5001F0CD3490843
:100390005FEA30004FEA3C0C04F101044FEA44529A
:1003A00012F5800F80F09A80BCF1004F08BF5FEA21
:1003B000500C50F1000041EB045141EA050130BD01
:1003C0005FEA4C0C404141EB0101013C28BFB1F513
:1003D000801FE9D291F0000F04BF01460020B1FA5E
:1003E00081F308BF2033A3F10B03B3F120020CDA31
:1003F0000C3208DD02F1140CC2F10C0201FA0CF00F
:1004000021FA02F10CE002F11402D8BFC2F1200C73
:1004100001FA02F120FA0CFCDCBF41EA0C01904029
:10042000E41AA2BF01EB0451294330BD6FEA040472
:100430001F3C1CDA0C340EDC04F11404C4F120025D
:1004400020FA04F001FA02F340EA030021FA04F36F
:1004500045EA030130BDC4F10C04C4F1200220FAC6
:1004600002F001FA04F340EA0300294630BD21FA04
:1004700004F0294630BD94F0000F83F4801306BFCA
:1004800081F480110134013D4EE77FEA645C18BFBE
:100490007FEA655C29D094EA050F08BF90EA020F55
:1004A00005D054EA000C04BF1946104630BD91EA4D
:1004B000030F1EBF0021002030BD5FEA545C05D150
:1004C0004000494128BF41F0004130BD14F580048F
:1004D0003CBF01F5801130BD01F0004545F0FE4103
:1004E00041F470014FF0000030BD7FEA645C1ABF38
:1004F000194610467FEA655C1CBF0B46024650EA6F
:10050000013406BF52EA033591EA030F41F400219A
:1005100030BD00BF90F0000F04BF0021704730B520
:100520004FF4806404F132044FF000054FF00001F5
:1005300050E700BF90F0000F04BF0021704730B5B6
:100540004FF4806404F1320410F0004548BF40428B
:100550004FF000013EE700BF42004FEAE2014FEAE0
:1005600031014FEA02701FBF12F07F4393F07F4FBB
:1005700081F06051704732F07F4208BF704793F0BE
:100580007F4F04BF41F40021704730B54FF46074D1
:1005900001F0004521F000411CE700BF50EA0102D4
:1005A00008BF704730B54FF000050AE050EA01027D
:1005B00008BF704730B511F0004502D5404261EBED
:1005C00041014FF4806404F132045FEA915C3FF42E
:1005D000D8AE4FF003025FEADC0C18BF03325FEACB
:1005E000DC0C18BF033202EBDC02C2F1200300FA7C
:1005F00003FC20FA02F001FA03FE40EA0E0021FAA1
:1006000002F11444BDE600BF70B54FF0FF0C4CF48E
:10061000E06C1CEA11541DBF1CEA135594EA0C0F40
:1006200095EA0C0F00F0DEF82C4481EA030621EA7B
:100630004C5123EA4C5350EA013518BF52EA0335B6
:1006400041F4801143F4801338D0A0FB02CE4FF068
:100650000005E1FB02E506F00042E0FB03E54FF098
:100660000006E1FB03569CF0000F18BF4EF0010E90
:10067000A4F1FF04B6F5007F64F5407404D25FEA8C
:100680004E0E6D4146EB060642EAC62141EA55513F
:100690004FEAC52040EA5E504FEACE2EB4F1FD0C81
:1006A00088BFBCF5E06F1ED8BEF1004F08BF5FEAFF
:1006B000500E50F1000041EB045170BD06F00046B1
:1006C00046EA010140EA020081EA0301B4EB5C045E
:1006D000C2BFD4EB0C0541EA045170BD41F4801156
:1006E0004FF0000E013C00F3AB8014F1360FDEBF7B
:1006F000002001F0004170BDC4F10004203C35DA57
:100700000C341BDC04F11404C4F1200500FA05F3D9
:1007100020FA04F001FA05F240EA020001F000427A
:1007200021F0004110EBD37021FA04F642EB0601F0
:100730005EEA430E08BF20EAD37070BDC4F10C041A
:10074000C4F1200500FA04F320FA05F001FA04F2DE
:1007500040EA020001F0004110EBD37041F10001CA
:100760005EEA430E08BF20EAD37070BDC4F12005D5
:1007700000FA05F24EEA020E20FA04F301FA05F23D
:1007800043EA020321FA04F001F0004121FA04F2E5
:1007900020EA020000EBD3705EEA430E08BF20EAB5
:1007A000D37070BD94F0000F0FD101F000464000EF
:1007B00041EB010111F4801F08BF013CF7D041EA71
:1007C000060195F0000F18BF704703F00046520075
:1007D00043EB030313F4801F08BF013DF7D043EA46
:1007E0000603704794EA0C0F0CEA135518BF95EAFC
:1007F0000C0F0CD050EA410618BF52EA4306D1D183
:1008000081EA030101F000414FF0000070BD50EAA1
:10081000410606BF1046194652EA430619D094EA2B
:100820000C0F02D150EA013613D195EA0C0F05D115
:1008300052EA03361CBF104619460AD181EA030169
:1008400001F0004141F0FE4141F470014FF0000021
:1008500070BD41F0FE4141F4780170BD70B54FF0BC
:10086000FF0C4CF4E06C1CEA11541DBF1CEA13553C
:1008700094EA0C0F95EA0C0F00F0A7F8A4EB05041E
:1008800081EA030E52EA03354FEA013100F0888015
:100890004FEA03334FF0805545EA131343EA1263DE
:1008A0004FEA022245EA111545EA10654FEA002693
:1008B0000EF000419D4208BF964244F1FD0404F54C
:1008C000407402D25B084FEA3202B61A65EB0305A8
:1008D0005B084FEA32024FF480104FF4002CB6EB65
:1008E000020E75EB030E22BFB61A754640EA0C00E5
:1008F0005B084FEA3202B6EB020E75EB030E22BF25
:10090000B61A754640EA5C005B084FEA3202B6EB65
:10091000020E75EB030E22BFB61A754640EA9C0024
:100920005B084FEA3202B6EB020E75EB030E22BFF4
:10093000B61A754640EADC0055EA060E18D04FEAB2
:10094000051545EA16754FEA06164FEAC30343EA52
:1009500052734FEAC2025FEA1C1CC0D111F4801F1F
:100960000BD141EA00014FF000004FF0004CB6E718
:1009700011F4801F04BF01430020B4F1FD0C88BFB7
:10098000BCF5E06F3FF6AFAEB5EB030C04BFB6EBC2
:10099000020C5FEA500C50F1000041EB045170BDB5
:1009A0000EF0004E4EEA113114EB5C04C2BFD4EBE2
:1009B0000C0541EA045170BD41F480114FF0000E66
:1009C000013C90E645EA060E8DE60CEA135594EAE2
:1009D0000C0F08BF95EA0C0F3FF43BAF94EA0C0FE5
:1009E0000AD150EA01347FF434AF95EA0C0F7FF45A
:1009F00025AF104619462CE795EA0C0F06D152EAAE
:100A000003353FF4FDAE1046194622E750EA410691
:100A100018BF52EA43067FF4C5AE50EA41047FF4A2
:100A20000DAF52EA43057FF4EBAE12E74FF0FF3C07
:100A300006E000BF4FF0010C02E000BF4FF0010CD8
:100A40004DF804CD4FEA410C7FEA6C5C4FEA430C51
:100A500018BF7FEA6C5C1BD001B050EA410C0CBFA0
:100A600052EA430C91EA030F02BF90EA020F002002
:100A7000704710F1000F91EA030F58BF994208BF69
:100A800090422CBFD8176FEAE37040F00100704726
:100A90004FEA410C7FEA6C5C02D150EA013C07D17D
:100AA0004FEA430C7FEA6C5CD6D152EA033CD3D0C8
:100AB0005DF8040B704700BF8446104662468C46C2
:100AC0001946634600E000BF01B5FFF7B7FF0028F5
:100AD00048BF10F1000F01BD4DF808EDFFF7F4FF1E
:100AE0000CBF012000205DF808FB00BF4DF808EDA9
:100AF000FFF7EAFF34BF012000205DF808FB00BFCC
:100B00004DF808EDFFF7E0FF94BF012000205DF8ED
:100B100008FB00BF4DF808EDFFF7CEFF94BF0120A2
:100B200000205DF808FB00BF4DF808EDFFF7C4FF9B
:100B300034BF012000205DF808FB00BF4FEA410CE4
:100B40007FEA6C5C02D150EA013C0AD14FEA430CC7
:100B50007FEA6C5C02D152EA033C02D14FF0000004
:100B600070474FF0010070474FEA410212F5001242
:100B700015D211D56FF47873B3EB625212D94FEAE4
:100B8000C12343F0004343EA505311F0004F23FACE
:100B900002F018BF404270474FF00000704750EA23
:100BA000013005D111F0004008BF6FF000407047E0
:100BB0004FF00000704700BF53B94AB9002908BF81
:100BC00000281CBF4FF0FF314FF0FF3000F00CB891
:100BD000ADF1080C6DE904CE05F0D8F8DDF804E0BD
:100BE000DDE9022304B07047704700BF0348044B9F
:100BF000834202D0034B03B118477047D401002051
:100C0000D4010020000000000548064B1B1AD90F34
:100C100001EBA301491002D0034B03B11847704701
:100C2000D4010020D40100200000000010B5064CC3
:100C3000237843B9FFF7DAFF044B13B10448AFF34D
:100C400000800123237010BDD401002000000000AB
:100C50004860000808B5054B1BB105490548AFF3CE
:100C60000080BDE80840FFF7CFBF00BF00000000D4
:100C7000D80100204860000872B6FEE700B595B0C4
:100C80003822002106A803F0C0F80020019002904D
:100C900003900490059001F019FD012306934FF491
:100CA0008033079302230D9303220E920F93552254
:100CB000109211931293139306A800F0C7FE80B907
:100CC0000F230193032302930023039304930593BB
:100CD00004210DEB010001F071F920B915B05DF8A8
:100CE00004FBFFF7C9FFFFF7C7FF000000B583B0A3
:100CF00000F04AFEFFF7C2FF00F050F800F0A4F841
:100D000000F0A0F900F0D0F802F0E0F902F0C0F92C
:100D1000642000F05BFE1FE001221146194801F03B
:100D2000CFFC194B1868FFF717FC04460D46174B0C
:100D30001868FFF711FCCDE9000122462B46144844
:100D400003F00EF801224FF40051124801F0B8FCF4
:100D50004FF47A7000F03AFE00224FF400510D4833
:100D600001F0AEFC0949084802F096FA0A4B1870E7
:100D70000028D1D00128D4D100220121014801F05E
:100D80009FFCCEE700040048F8010020F401002099
:100D90006460000800080048F0010020F0B58BB046
:100DA000002405940694079408940994234BDA6C64
:100DB00042F00402DA64DA6C02F004020192019A51
:100DC000DA6C42F02002DA64DA6C02F0200202925D
:100DD000029ADA6C42F00202DA64DA6C02F0020281
:100DE0000392039ADA6C42F00102DA64DB6C03F0DE
:100DF00001030493049B124F01224FF40051384623
:100E000001F05EFC0F4E01221146304601F058FC05
:100E10004FF400530593012506950794089405A9FE
:100E2000384601F063FB059506950794089405A9DB
:100E3000304601F05BFB0BB0F0BD00BF001002407C
:100E4000000800480004004808B51548154B036029
:100E5000A3F17563A3F57A23A3F60543436000234A
:100E600083600122C260036143618361C3610362E5
:100E700000F02EFB50B90021094800F003FD40B9F5
:100E80000021074800F02CFD30B908BDFFF7F4FE43
:100E9000F1E7FFF7F1FEF3E7FFF7EEFEF5E700BF3E
:100EA000480200200054004008B51448144B036069
:100EB000A3F17563A3F57D23053B436000238360A5
:100EC0000122C260036143618361C361036200F078
:100ED000FFFA50B90021094800F0D4FC40B90021C4
:100EE000064800F0FDFC30B908BDFFF7C5FEF1E78C
:100EF000FFF7C2FEF3E7FFF7BFFEF5E7FC010020B6
:100F000000780040F0B59DB004460021179118917B
:100F100019911A911B91442206A802F076FF2368CA
:100F2000444A934204D0444A934241D01DB0F0BD9C
:100F30004023069306A801F067F9002835D13F4CFD
:100F4000E36C43F00103E364E36C03F001030093FB
:100F5000009BE36C43F00203E364E36C03F00203E1
:100F60000193019B4FF40043179312271897002514
:100F700019951A9504261B9617A94FF0904001F079
:100F8000B5FA80231793189719951A951B9617A9E8
:100F90002B4801F0ABFAA36D43F40013A365A36DD6
:100FA00003F400130293029BC0E7FFF765FEC6E758
:100FB0004FF48073069306A801F026F9002836D175
:100FC0001E4CE36C43F00103E364E36C03F00103A4
:100FD0000393039BE36C43F00203E364E36C03F0CD
:100FE00002030493049B4FF4807317931226189600
:100FF000002519951A9502231B9317A94FF09040CD
:1010000001F074FA20231793189619951A9508235E
:101010001B9317A90A4801F069FAA36D43F08043B6
:10102000A365A36D03F080430593059B7EE7FFF75F
:1010300023FEC5E700540040007800400010024045
:101040000004004808B51748174B03604FF4E1331C
:10105000436000238360C36003610C2242618361AB
:10106000C36103624362836201F044FF70B90021EF
:101070000C4801F0B8FF60B900210A4801F0D8FF20
:1010800050B9084801F090FF48B908BDFFF7F4FDDA
:10109000EDE7FFF7F1FDEFE7FFF7EEFDF1E7FFF713
:1010A000EBFDF2E7940200200038014010B598B043
:1010B0000446002113911491159116911791442221
:1010C00002A802F0A2FE2268184B9A4201D018B082
:1010D00010BD0123029302A801F096F810BB144B37
:1010E0001A6E42F480421A661A6E02F4804200922E
:1010F000009ADA6C42F00102DA64DB6C03F001035F
:101100000193019B4FF4C0631393022314930023B4
:10111000159316930723179313A94FF0904001F0EE
:10112000E5F9D4E7FFF7A8FDD9E700BF0038014093
:101130000010024010B514464FF0FF3392B202483F
:1011400001F02FFE204610BD94020020FEE7FEE7CE
:10115000FEE7FEE7FEE770477047704708B500F00E
:1011600023FC08BD00B583B00B4B1A6E42F00102A0
:101170001A661A6E02F001020092009A9A6D42F00D
:1011800080529A659B6D03F080530193019B01F09F
:1011900023FB03B05DF804FB0010024003689A696A
:1011A00012F0020F01D000229A6203689A6912F0CD
:1011B000010F03D19A6942F001029A61704710B49D
:1011C000019CC1F3090141EA02411943214321F085
:1011D000004102685368640D04F4806444F07F7435
:1011E00044F4583444F47F7444F0030423EA0403C1
:1011F0000B4353605DF8044B70472DE9F041044602
:1012000003689F6917F010074CD00E4690461022D5
:10121000DA6100252368986910F0200F3BD1002D7A
:1012200039D1B6F1FF3FF5D000F0CAFBA0EB0800C2
:10123000B04201D8002EEDD121684B6803F4804301
:1012400094F84220D2B2886910F4004F02D00BB952
:10125000202A18D123689B6913F0200FDAD100F0FF
:10126000AFFBA0EB08001928F4D9636C43F020030E
:101270006364202384F84130002384F8423084F8EA
:1012800040300125E6E74B6843F480434B6000F0B3
:1012900097FB8046DEE7002D40D12022DA6104274B
:1012A000012500E000252268936913F4807F05D0B2
:1012B00047F001074FF48071D161012513F4806F6D
:1012C00006D047F0080722684FF48061D1610125FC
:1012D00013F4007F24D047F0020723684FF4007214
:1012E000DA6101252046FFF759FF2268536823F091
:1012F000FF7323F48B3323F4FF7323F00103536054
:10130000636C3B436364202384F84130002384F8FA
:10131000423084F840302846BDE8F0810427C2E717
:10132000002DF8D0DEE770B504460D46164623685A
:101330009B6913F0020F1DD1324629462046FFF764
:101340005CFFC8B9B5F1FF3FF1D000F039FB801B5D
:10135000A84201D8002DEAD1636C43F020036364F6
:10136000202384F84130002384F8423084F8403050
:10137000012000E0002070BD0120FCE72DE9F041D4
:101380000646884617461D463468A46938EA0404B0
:101390000CBF01240024BC4218D1B5F1FF3FF3D0AB
:1013A00000F00EFB069BC01AA84201D8002DEBD11D
:1013B000736C43F020037364202386F841300023CC
:1013C00086F8423086F84030012000E00020BDE879
:1013D000F08170B505460C4616462B689B6913F0E4
:1013E000200F1AD1324621462846FFF706FFB0B932
:1013F00000F0E6FA801BA04201D8002CEDD16B6C06
:1014000043F020036B64202385F84130002385F8E6
:10141000423085F84030012070BD0020FCE70120FB
:10142000FAE770B504460D46164623689B6913F02B
:10143000040F49D1324629462046FFF7DEFE014619
:10144000002843D123689A6912F0200F13D100F0CD
:10145000B7FA801BA84201D8002DE6D1636C43F097
:1014600020036364202384F84130002384F8403053
:101470000121084670BD9A6912F0040F02D0228D36
:10148000002AF6D19A6912F0100F1AD01022DA61F0
:101490000423636423682022DA6121684B6823F007
:1014A000FF7323F48B3323F4FF7323F001034B60AA
:1014B00084F84120002384F8423084F84030012130
:1014C000D7E700236364E5E70021D2E70121D0E7F5
:1014D000002859D010B5044690F84130002B43D075
:1014E000242384F841302268136823F00103136039
:1014F0006368226823F0706313612268936823F4A1
:1015000000439360E368012B33D0A368226843F45F
:1015100004439360E368022B31D02268536843F0A0
:10152000007343F4004353602268D36823F40043FC
:10153000D360236962691343A169226843EA0123E6
:10154000D360E369216A22680B4313602268136841
:1015500043F00103136000206064202384F84130CD
:10156000206384F8420010BD80F84030FFF7CAFCC9
:10157000B6E7A368226843F400439360CAE7236890
:101580004FF400625A60C8E7012070472DE9F04728
:1015900082B00F460A9E90F84110C9B2202940F04F
:1015A000A38004469046994690F84030012B00F005
:1015B0009F804FF0010A80F840A000F001FA054634
:1015C0000090192352464FF400412046FFF7D6FE03
:1015D000002840F08F80212384F84130102384F8C4
:1015E000423000236364C4F82480A4F82A90636323
:1015F000638D9BB2FF2B0AD9FF222285414B0093BA
:101600004FF0807339462046FFF7D9FD18E0628D10
:1016100092B222853B4B00934FF00073D2B2394611
:101620002046FFF7CCFD0BE0628D92B222850023AD
:1016300000934FF00073D2B239462046FFF7BFFD4A
:10164000638D9BB2002B33D02A4631462046FFF7EC
:101650006AFE002850D1626A236812789A62636A2F
:1016600001336362638D9BB2013B9BB26385238D23
:10167000013B9BB22385628D92B2002AE0D0002B01
:10168000DED100953346002280212046FFF776FE0A
:10169000A0BB638D9BB2FF2BC6D9FF2222850023FE
:1016A00000934FF0807339462046FFF788FDC7E767
:1016B0002A4631462046FFF78CFE08BB23682022CD
:1016C000DA6121684B6823F0FF7323F48B3323F432
:1016D000FF7323F001034B6084F84120002384F85A
:1016E000423084F8403000E0022002B0BDE8F087CC
:1016F0000220FAE70120F8E70120F6E70120F4E7ED
:101700000120F2E7002000802DE9F04782B00F466B
:101710000A9E90F84110C9B2202940F0A2800446E8
:101720009046994690F84030012B00F09E804FF093
:10173000010A80F840A000F043F905460090192303
:1017400052464FF400412046FFF718FE002840F0B3
:101750008E80222384F84130102384F84230002305
:101760006364C4F82480A4F82A906363638D9BB2F9
:10177000FF2B0AD9FF222285414B00934FF0807343
:1017800039462046FFF71BFD18E0628D92B2228594
:101790003B4B00934FF00073D2B239462046FFF71F
:1017A0000EFD0BE0628D92B22285002300934FF074
:1017B0000073D2B239462046FFF701FD638D9BB21C
:1017C000002B32D02A4631462046FFF72AFE002859
:1017D0004FD123685A6A636A1A70636A013363627D
:1017E000228D013A92B22285638D9BB2013B9BB25E
:1017F0006385638D9BB2002BE0D0002ADED100957B
:10180000334680212046FFF7B9FDA0BB638D9BB214
:10181000FF2BC7D9FF222285002300934FF080734E
:1018200039462046FFF7CBFCC8E72A46314620461A
:10183000FFF7CFFD08BB23682022DA6121684B68DF
:1018400023F0FF7323F48B3323F4FF7323F001039E
:101850004B6084F84120002384F8423084F8403003
:1018600000E0022002B0BDE8F0870220FAE7012084
:10187000F8E70120F6E70120F4E70120F2E700BFD6
:1018800000240080034690F84120D2B2202A23D1C0
:1018900090F84020012A21D0012280F84020242203
:1018A00080F841200068026822F001020260186896
:1018B000026822F4805202601868026811430160D5
:1018C00019680A6842F001020A60202283F8412068
:1018D000002083F8400070470220704702207047C4
:1018E000034690F84120D2B2202A21D190F840201E
:1018F000012A1FD0012280F84020242280F84120B4
:101900000068026822F0010202601868026822F48E
:10191000706242EA0122026019680A6842F001021C
:101920000A60202283F84120002083F8400070479D
:101930000220704702207047104B1B680BB9012032
:10194000704710B504464FF47A70B0FBF3F30C4ABD
:101950001068B0FBF3F000F09DFF68B90F2C01D9BF
:1019600001200AE0002221464FF0FF3000F082FF04
:10197000044B1C60002000E0012010BD000000208E
:10198000080000200400002010B5032000F060FFD4
:101990000F20FFF7D1FF10B10124204610BD0446EF
:1019A000FFF7E0FBF9E70000034A13680349096801
:1019B0000B441360704700BF240300200000002088
:1019C000014B1868704700BF2403002038B5044657
:1019D000FFF7F6FF0546B4F1FF3F02D0044B1B684A
:1019E0001C44FFF7EDFF401BA042FAD338BD00BFF7
:1019F00000000020124BDA6802F00302DB68C3F338
:101A000003130133032A11D00E48B0FBF3F00C4B43
:101A1000DB68C3F3062303FB00F0094BDB68C3F369
:101A2000416301335B00B0FBF3F070470648B0FB45
:101A3000F3F0034BDB68C3F3062303FB00F0ECE792
:101A4000001002400024F40000127A00002800F088
:101A5000548270B582B00446036813F0010F37D08A
:101A6000A44A936803F00C03D26802F003020C2B23
:101A700023D0082B23D06368B3F5803F4ED0B3F555
:101A8000A02F51D09B4B1A6822F480321A601A683A
:101A900022F480221A606368002B52D0FFF790FF77
:101AA0000546944B1B6813F4003F11D1FFF788FFE4
:101AB000401B6428F5D9032028E2032AD9D18D4B95
:101AC0001B6813F4003F03D06368002B00F01782FB
:101AD000236813F0020F5DD0864A936803F00C036D
:101AE000D26802F003020C2B3AD0042B3AD0E36800
:101AF000002B75D07F4A136843F480731360FFF79F
:101B00005FFF05467B4B1B6813F4806F5FD1FFF7C7
:101B100057FF401B0228F5D90320F7E1754A1368E7
:101B200043F480331360B6E703F18043A3F53C33FD
:101B30001A6842F480221A601A6842F480321A60ED
:101B4000A9E7FFF73DFF05466A4B1B6813F4003F0A
:101B5000BED0FFF735FF401B6428F5D90320D5E13F
:101B6000022AC2D1634B1B6813F4806F03D0E36871
:101B7000002B00F0C6815F4A536823F0FE432169C1
:101B800043EA016353605C4B1868FFF7D5FE0028F9
:101B900040F0B981236813F0080F4CD063699BB300
:101BA000544AD2F8943043F00103C2F89430FFF75E
:101BB00007FF05464F4BD3F8943013F0020F3AD18C
:101BC000FFF7FEFE401B0228F4D903209EE1494A9C
:101BD000536823F0FE43216943EA01635360D9E768
:101BE000444A136823F480731360FFF7E9FE054647
:101BF000404B1B6813F4806FCCD0FFF7E1FE401B15
:101C00000228F5D9032081E13A4AD2F8943023F032
:101C10000103C2F89430FFF7D3FE0546354BD3F8E5
:101C2000943013F0020F06D0FFF7CAFE401B0228C3
:101C3000F4D903206AE1236813F0040F00F08180D7
:101C40002C4B9B6D13F0805F36D12A4B9A6D42F07E
:101C500080529A659B6D03F080530193019B01258F
:101C6000264B1B6813F4807F28D0A368012B39D042
:101C7000052B45D01F4BD3F8902022F00102C3F86A
:101C80009020D3F8902022F00402C3F89020A3689B
:101C9000002B43D0FFF794FE0646164BD3F8903046
:101CA00013F0020F4CD1FFF78BFE801B41F28833FB
:101CB0009842F2D9032029E10025D1E70F4A1368A1
:101CC00043F480731360FFF77BFE06460B4B1B68E3
:101CD00013F4807FC9D1FFF773FE801B0228F5D96A
:101CE000032013E1034AD2F8903043F00103C2F815
:101CF0009030CCE70010024004000020007000404B
:101D00008A4BD3F8902042F00402C3F89020D3F815
:101D1000902042F00102C3F89020B8E7FFF750FE90
:101D20000646824BD3F8903013F0020F08D0FFF72D
:101D300047FE801B41F288339842F2D90320E5E048
:101D4000E5B9236813F0200F35D0A369E3B1774AD2
:101D5000D2F8983043F00103C2F89830FFF730FE14
:101D60000546724BD3F8983013F0020F23D1FFF7DA
:101D700027FE401B0228F4D90320C7E06B4A936D6D
:101D800023F080539365DCE7684AD2F8983023F05B
:101D90000103C2F89830FFF713FE0546634BD3F8F2
:101DA000983013F0020F06D0FFF70AFE401B0228FE
:101DB000F4D90320AAE0E369002B00F0A6805B4A77
:101DC000926802F00C020C2A69D0022B1DD0574BEE
:101DD0001A6822F080721A60DA6822F00302DA6070
:101DE000DA6822F0887222F48032DA60FFF7E8FDC8
:101DF00004464E4B1B6813F0007F4ED0FFF7E0FD0A
:101E0000001B0228F5D9032080E0484A136823F01C
:101E100080731360FFF7D4FD0546444B1B6813F035
:101E2000007F06D0FFF7CCFD401B0228F5D9032028
:101E30006CE03E4AD3683E491940236A606A013823
:101E400043EA0013A06A43EA0023206B40080138EC
:101E500043EA4053606B4008013843EA4063E06A5C
:101E600043EAC0631943D160136843F08073136081
:101E7000D36843F08073D360FFF7A2FD04462B4B79
:101E80001B6813F0007F06D1FFF79AFD001B0228A4
:101E9000F5D903203AE0002038E0002036E0012B9D
:101EA00036D0224BDB6803F00301226A914231D124
:101EB00003F0F002616A0139B2EB011F2CD103F487
:101EC000FE42A16AB2EB012F28D103F07842E16A09
:101ED000B2EBC16F24D103F4C001226B5208013A66
:101EE000B1EB425F1ED103F0C063626B5208013A4E
:101EF000B3EB426F18D1002008E0012070470120A9
:101F000004E0012002E0012000E0002002B070BDEA
:101F10000120FBE70120F9E70120F7E70120F5E7C1
:101F20000120F3E70120F1E70120EFE70010024074
:101F30000C809F011E4B9B6803F00C03042B33D0D5
:101F40001B4B9B6803F00C03082B2FD0184B9B688E
:101F500003F00C030C2B01D000207047144BDA68FF
:101F600002F00302DB68C3F303130133032A11D029
:101F70001048B0FBF3F00E4BDB68C3F3062303FB02
:101F800000F00B4BDB68C3F3416301335B00B0FB34
:101F9000F3F070470848B0FBF3F0054BDB68C3F380
:101FA000062303FB00F0ECE7024870470248704745
:101FB000001002400024F40000127A00002800F013
:101FC000E680F8B50C460546744B1B6803F00F031A
:101FD0008B420BD2714A136823F00F030B4313603B
:101FE000136803F00F038B4240F0D3802E6816F085
:101FF00001065FD06B68032B2FD0022B4DD0684BAE
:102000001B6813F4806F00F0C680FFF793FF654BE9
:1020100098424DD9624A936823F0F00343F080035D
:10202000936080265E4A936823F0030369680B433C
:102030009360FFF7C5FC0746594B9B6803F00C0300
:102040006A68B3EB820F35D0FFF7BAFCC01B41F2D0
:1020500088339842F0D9032078E0514B1B6813F085
:10206000007F01D1012071E0FFF7C4FC4D4B984285
:102070001AD94B4B9B6813F0F00F05D02E6816F061
:102080000206CFD0AB688BB9454A936823F0F003C2
:1020900043F0800393608026C4E7414B1B6813F430
:1020A000003FB2D1012051E00026BBE70026B9E78E
:1020B0000026B7E72B6813F0020F48D013F0040F87
:1020C00004D0374A936843F4E06393602B6813F0BD
:1020D000080F06D0324A936823F47C5343F4E0633C
:1020E00093602F4A936823F0F003A9680B43936031
:1020F0002A4B1B6803F00F03A34230D82B6813F060
:10210000040F06D0264A936823F4E063E9680B4382
:1021100093602B6813F0080F07D0214A936823F4CB
:102120006053296943EAC1039360FFF703FF1C4B27
:102130009B68C3F303131C4AD35C03F01F03D8400E
:102140001A4B18601A4B1868FFF7F6FBF8BD802E83
:10215000CED1134A936823F0F0039360C8E70F4A87
:10216000136823F00F0323431360FFF729FC06468F
:102170000A4B1B6803F00F03A342BFD0FFF720FCFC
:10218000801B41F288339842F2D90320DEE7012018
:1021900070470120DAE70120D8E700BF00200240A5
:1021A0000010024000B4C404B86000080800002019
:1021B00004000020014B1868704700BF0800002091
:1021C00008B5FFF7F7FF054B9B68C3F30223044AEA
:1021D000D35C03F01F03D84008BD00BF00100240CD
:1021E000B060000808B5FFF7E5FF054B9B68C3F337
:1021F000C223044AD35C03F01F03D84008BD00BFCC
:1022000000100240B0600008F0B583B004460368D7
:1022100013F4002F69D0AE4B9B6D13F0805F1ED17D
:10222000AB4B9A6D42F080529A659B6D03F08053E0
:102230000193019B0126A74A136843F4807313603E
:10224000FFF7BEFB0546A34B1B6813F4807F08D144
:10225000FFF7B6FB401B0228F5D9032502E0002654
:10226000E9E7002545BB9A4BD3F8903013F440734F
:1022700015D0226C9A4212D0954AD2F8903023F4AD
:102280004073D2F8901041F48031C2F89010D2F827
:10229000901021F48031C2F89010C2F8903013F001
:1022A000010F10D145B98A4AD2F8903023F4407317
:1022B000216C0B43C2F89030C6B1854A936D23F070
:1022C0008053936512E0FFF77BFB0746804BD3F802
:1022D000903013F0020FE5D1FFF772FBC01B41F203
:1022E00088339842F2D90325DCE70025236813F0F0
:1022F000010F08D0764AD2F8883023F003036168D2
:102300000B43C2F88830236813F0020F08D0704ADC
:10231000D2F8883023F00C03A1680B43C2F8883050
:10232000236813F0040F08D0694AD2F8883023F0EC
:102330003003E1680B43C2F88830236813F0080FBC
:1023400008D0634AD2F8883023F0C00321690B43D8
:10235000C2F88830236813F0200F08D05C4AD2F806
:10236000883023F4406361690B43C2F888302368E6
:1023700013F0400F08D0564AD2F8883023F4405367
:10238000A1690B43C2F88830236813F0800F08D08E
:102390004F4AD2F8883023F44043E1690B43C2F836
:1023A0008830236813F4807F08D0494AD2F88830F7
:1023B00023F44033216A0B43C2F88830236813F4B6
:1023C000007F08D0424AD2F8883023F44023616A63
:1023D0000B43C2F88830236813F4806F0CD03C4A5A
:1023E000D2F8883023F44013A16A0B43C2F8883036
:1023F000A36AB3F5801F57D0236813F4006F0CD085
:10240000334AD2F8883023F44003E16A0B43C2F820
:102410008830E36AB3F5800F4BD0236813F4805FF4
:102420000CD02B4AD2F8883023F04073216B0B4339
:10243000C2F88830236BB3F1807F3FD0236813F458
:10244000005F0CD0224AD2F8883023F04063616BE1
:102450000B43C2F88830636BB3F1006F33D023684D
:1024600013F4804F0CD01A4AD2F8883023F040631E
:10247000A16B0B43C2F88830A36BB3F1006F2BD074
:10248000236813F4004F0CD0114AD2F8883023F09F
:102490004053E16B0B43C2F88830E36BB3F1805FCC
:1024A0001FD0284603B0F0BDD36843F48013D36037
:1024B000A2E7D36843F48013D360AEE7D36843F454
:1024C0008013D360BAE7D36843F48013D360C6E7C0
:1024D0000010024000700040D36843F48013D360C2
:1024E000CEE7D36843F48033D360DAE7F0B583B046
:1024F000002362E085685E000324B44025EA0405F9
:10250000CC68B4402C438460456825EA0C054C68CF
:10251000C4F300149C402C4344605FE0DD080835A0
:1025200050F8254003F0070C4FEA8C0C4FF00F0ECB
:102530000EFA0CFE24EA0E0E0C6904FA0CF444EABE
:102540000E0440F8254060E0052400E0002404FA71
:102550000EF42C430CF1020C554D45F82C40554C13
:10256000A568D44325EA02064F6817F4801F01D0FE
:1025700042EA05064F4DAE60ED6804EA05064F6875
:1025800017F4001F01D042EA05064A4DEE606D685F
:1025900004EA05064F6817F4003F01D042EA050639
:1025A000444D6E602D682C404E6816F4803F01D07B
:1025B00042EA05043F4A146001330A6832FA03F420
:1025C00074D04FF0010C0CFA03FC1CEA0202F3D0A9
:1025D0004C6804F00304013C012C8BD94C6804F0D6
:1025E0000304032C0CD0C4685D004FF0030C0CFAFC
:1025F00005FC24EA0C0C8C68AC4044EA0C04C46072
:102600004C6804F00304022C88D004684FEA430E9F
:102610004FF0030C0CFA0EFC24EA0C0C4C6804F08E
:10262000030404FA0EF444EA0C0404604C6814F445
:10263000403FC1D0204C256E45F001052566246E33
:1026400004F001040194019C4FEA930C0CF1020583
:10265000174C54F8255003F0030E4FEA8E0E0F244A
:1026600004FA0EF425EA0405B0F1904F3FF46EAF82
:10267000124CA04212D004F58064A04210D004F5A0
:102680008064A0420ED004F58064A0420CD004F512
:102690008064A0423FF458AF062458E7012456E76F
:1026A000022454E7032452E7042450E703B0F0BDAA
:1026B00000000140000401400010024000040048F6
:1026C0000AB181617047816270470000002836D1ED
:1026D0003E4B1B6803F4C063B3F5806F08D03B4AE0
:1026E000D2F8803023F48073C2F880300020704725
:1026F000364AD2F8803023F48073C2F880301368F1
:1027000023F4C06343F400731360314B1B6832221F
:1027100002FB03F32F4AA2FB03239B0C013300E0CF
:10272000013B2A4A526912F4806F01D0002BF7D185
:10273000264B5B6913F4806F44D100207047B0F5DD
:10274000007F08D0214A136823F4C06343F48063F8
:102750001360002070471D4B1B6803F4C063B3F582
:10276000806F08D0194AD2F8803043F48073C2F8E1
:10277000803000207047154AD2F8803043F48073CF
:10278000C2F88030136823F4C06343F4007313600D
:102790000F4B1B68322202FB03F30E4AA2FB0323FA
:1027A0009B0C013300E0013B084A526912F4806F30
:1027B00001D0002BF7D1054B5B6913F4806F03D177
:1027C00000207047032070470320704700700040CE
:1027D0000800002083DE1B43024A936843F48043D1
:1027E0009360704700700040002808DB0901C9B2FF
:1027F00000F1604000F5614080F80013704700F080
:102800000F000901C9B2014B1954704714ED00E0E3
:1028100000B500F00700C0F1070CBCF1040F28BFA1
:102820004FF0040C031D062B0FD9C31E4FF0FF3EC3
:102830000EFA0CF021EA000199400EFA03FE22EA9A
:102840000E0241EA02005DF804FB0023EEE70000FF
:10285000074AD36823F4E0631B041B0C000200F456
:10286000E060034343F0BF6343F40033D360704739
:1028700000ED00E010B50446054BD868C0F3022017
:10288000FFF7C6FF01462046FFF7AEFF10BD00BFB1
:1028900000ED00E00138B0F1807F0BD24FF0E02373
:1028A0005861054AF02182F8231000209861072220
:1028B0001A6170470120704700ED00E070B50446D2
:1028C000016883680269134342691343C269134371
:1028D00008688B4A02401A430A602268536823F44E
:1028E0004053E1680B435360A1692268854B9A42CB
:1028F00001D0236A1943936823F06E4323F43063B5
:102900000B4393602268D36A23F00F03616A0B4381
:10291000D36223687C4A934223D07C4A934234D0CA
:102920007B4A93424AD07B4A934259D0754A93429C
:1029300068D0102273498B4200F09580E069B0F5B1
:10294000004F00F0D280082A00F24F81DFE812F039
:102950001201340110014D0137014D014D014D01AE
:102960003A0102F55842D2F8882002F00302032A05
:1029700009D8DFE802F002045C060122DAE704224B
:10298000D8E70822D6E71022D4E702F5E632D2F8DB
:10299000882002F00C020C2A0ED8DFE802F0070DA6
:1029A0000D0D090D0D0D4A0D0D0D0B000022C1E797
:1029B0000422BFE70822BDE71022BBE702F5E4329C
:1029C000D2F8882002F03002202A34D004D8A2B3F2
:1029D000102A34D10422ADE7302A32D10822A9E7E7
:1029E00002F5E232D2F8882002F0C002802A2AD012
:1029F00004D852B3402A2AD104229BE7C02A28D106
:102A0000082297E702F5C832D2F8882002F4406223
:102A1000B2F5006F1FD005D8FAB1B2F5806F1ED1A4
:102A2000042287E7B2F5406F1BD1082282E7022219
:102A300080E702227EE702227CE700227AE710226A
:102A400078E7102276E7022274E7002272E710226C
:102A500070E710226EE702226CE700226AE710227C
:102A600068E7102266E7082A00F2AF80DFE802F08C
:102A700008AD3BAD38ADADAD05004FF4004004E00E
:102A8000FFF79EFB002800F0A280626A224B33F819
:102A90001220B0FBF2F3656805EB4501994200F2A4
:102AA0009880B3EB053F00F296800026334631460E
:102AB000FEF782F8090241EA106100026B08C018B3
:102AC0002A46334641F10001FEF776F8A0F5407240
:102AD000124B9A4200F281802368D860304662E04F
:102AE000FFF728FACEE70E48CFE7082A77D8DFE8C5
:102AF00002F0193905763C7676761D00084815E017
:102B0000F369FFCF008000400038014000440040DE
:102B100000480040004C004088600008FFFC0F00A7
:102B20000024F400FFF74CFB00285AD0626A324BB5
:102B300033F81230B0FBF3F06268530803EB400344
:102B4000B3FBF2F3A3F110014FF6EF7291424AD8B2
:102B50009AB222F00F02C3F3420313432268D360F8
:102B6000002020E0FFF73EFBDEE7FFF7E3F9DBE7BD
:102B7000224803E0FFF724FB002838D0626A1E4B8E
:102B800033F81230B0FBF3F0636800EB5300B0FB96
:102B9000F3F0A0F110024FF6EF739A4229D82368A0
:102BA00080B2D86000200123A4F86A30A4F868300D
:102BB00000232367636770BDFFF714FBDCE7FFF7B3
:102BC000B9F9D9E74FF40040D8E70120EBE700203E
:102BD000E9E70120E7E70120E5E70120E3E701203D
:102BE000E1E70020DFE70120DDE70120DBE700204F
:102BF000D9E70120D7E700BF886000080024F4006F
:102C0000836A13F0010F06D00268536823F400337F
:102C1000C16A0B435360836A13F0020F06D0026847
:102C2000536823F48033016B0B435360836A13F0C2
:102C3000040F06D00268536823F48023416B0B43D2
:102C40005360836A13F0080F06D00268536823F4B8
:102C50000043816B0B435360836A13F0100F06D05F
:102C60000268936823F48053C16B0B439360836ABB
:102C700013F0200F06D00268936823F40053016C10
:102C80000B439360836A13F0400F0AD002685368C5
:102C900023F48013416C0B435360436CB3F5801FE6
:102CA0000BD0836A13F0800F06D00268536823F4B8
:102CB0000023C16C0B43536070470268536823F4D0
:102CC000C003816C0B435360EBE72DE9F8430546E5
:102CD0000F4616469946DDF820802B68DC6937EAF6
:102CE00004040CBF01240024B44257D1B8F1FF3FC3
:102CF000F3D0FEF765FEA0EB090040452FD8B8F1F0
:102D0000000F2CD02B681A6812F0040FE5D0DA6996
:102D100012F4006FE1D04FF400621A622A6852E8A0
:102D2000003F23F4D07342E800310029F6D12A682D
:102D300002F1080353E8003F23F00103083242E8A0
:102D400000310029F3D12023C5F88430C5F888303C
:102D5000C5F88C30002385F8803003201FE02A68F6
:102D600052E8003F23F4D07342E800310029F6D145
:102D70002A6802F1080353E8003F23F001030832F8
:102D800042E800310029F3D12023C5F88430C5F88A
:102D90008830002385F88030032000E00020BDE863
:102DA000F8832DE9F04182B01E46D0F88430202B04
:102DB00058D104460D469046002957D0002A57D0D6
:102DC00090F88030012B55D0012380F8803000230B
:102DD000C0F88C302123C0F88430FEF7F1FD07469F
:102DE000A4F85480A4F85680A368B3F5805F05D09A
:102DF0004FF00008002384F8803014E0236913B1F9
:102E00004FF00008F6E7A8460025F3E738F8023B44
:102E10002268C3F308039362B4F8562092B2013AD1
:102E200092B2A4F85620B4F856309BB273B1009613
:102E30003B46002280212046FFF747FFE0B9002DE6
:102E4000E4D015F8012B23689A62E5E700963B462B
:102E5000002240212046FFF738FF78B92023C4F82C
:102E6000843000E0022002B0BDE8F0810120FAE7E2
:102E70000120F8E70220F6E70320F4E70320F2E759
:102E800030B583B004460023C0F88C30FEF798FDBF
:102E900005462268126812F0080F0FD123681B68DC
:102EA00013F0040F18D12023C4F88430C4F88830FC
:102EB0000020E06684F8800003B030BD6FF07E43F0
:102EC0000093034600224FF400112046FFF7FDFE59
:102ED0000028E3D00320EFE76FF07E4300932B46FA
:102EE00000224FF480012046FFF7EFFE0028DAD0E1
:102EF0000320E1E778B310B50446D0F884300BB373
:102F00002423C4F884302268136823F0010313607B
:102F10002046FFF7D3FC012813D0A36ABBB922686F
:102F2000536823F4904353602268936823F02A0384
:102F300093602268136843F0010313602046FFF793
:102F40009FFF10BD80F88030FEF7B0F8D8E720462C
:102F5000FFF756FEE3E7012070470000436E2BB9F0
:102F60000123A0F86A30A0F86830704730B40368D5
:102F70009A68C2F342629968490F094D6B5CDB00A5
:102F8000084C615C93FBF1F3A0F86A30AB5CDB00AA
:102F9000A25C93FBF2F3A0F8683030BC704700BF2E
:102FA000A8600008A060000890F88030012B18D0BD
:102FB000012380F880302423C0F8843003681A6825
:102FC000196821F00101196022F0005200234366C4
:102FD00001680A602022C0F8842080F880301846FA
:102FE00070470220704738B590F88030012B1DD013
:102FF0000446012380F880302423C0F8843003681D
:103000001D681A6822F001021A600268936823F0B2
:10301000604319439160FFF7A1FF23681D602023DF
:10302000C4F88430002084F8800038BD0220FCE71A
:1030300038B590F88030012B1DD00446012380F86C
:1030400080302423C0F8843003681D681A6822F099
:1030500001021A600268936823F06063194391606B
:10306000FFF77CFF23681D602023C4F88430002014
:1030700084F8800038BD0220FCE70000034AD2F843
:10308000883043F47003C2F88830704700ED00E0E8
:1030900000B585B00B4B1B88ADF80C3000238DF8C4
:1030A0000E30E1238DF80C3008238DF80D306423A9
:1030B0000093032303AA70210348FEF767FA05B0C3
:1030C0005DF804FB60600008FC01002000B585B0DD
:1030D000BA238DF80F306423009301230DF10F0202
:1030E00070210448FEF752FA1420FEF76FFC05B079
:1030F0005DF804FBFC01002000B585B00B4B1B887C
:10310000ADF80C3000238DF80E30AC238DF80C3068
:1031100033238DF80D3064230093032303AA702119
:103120000348FEF733FA05B05DF804FB6060000861
:10313000FC01002010B582B00446642300930623EE
:10314000024670210548FEF7DFFA94F90030002BA3
:1031500002DB002002B010BD0120FBE7FC010020D3
:1031600082B01C4B1B88ADF8043000238DF806306C
:10317000194A51788DF8041091788DF80510D2789D
:1031800002F0F0028DF806201A4607E002F108016D
:10319000694411F8041C0B441B020132022AF5DDBC
:1031A0001B0B00EE103AB8EE400ADFED0C7A20EE71
:1031B000270ADFED0B7A20EE270A002306E003F151
:1031C00008026A44002102F8041C0133022BF6DDD8
:1031D00002B07047606000082803002000008035BE
:1031E0000000C84282B0274B1B88ADF80430002392
:1031F0008DF806302448C2781201D2B28DF804202E
:10320000017902EB11128DF804200901C9B28DF881
:103210000510427901EB12118DF805101201D2B29E
:103220008DF80620817902EB11128DF806201A46DE
:1032300007E002F10801694411F8041C0B441B0269
:103240000132022AF5DD1B0B00EE103AB8EE400AFF
:10325000DFED0E7A20EE270ADFED0D7A20EE270A49
:10326000DFED0C7A30EE670A002306E003F1080276
:103270006A44002102F8041C0133022BF6DD02B07F
:10328000704700BF60600008280300200000803500
:10329000000048430000484270B504460D46FFF761
:1032A0002BFF6420FEF792FB0748FFF743FF06461B
:1032B00038B9FFF755FF85ED000AFFF793FF84ED5E
:1032C000000A304670BD00BF280300200D48854627
:1032D0000D480E490E4A002302E0D458C45004336E
:1032E000C4188C42F9D30B4A0B4C002301E0136045
:1032F0000432A242FBD3FFF7C1FE00F0D9FDFDF777
:10330000F5FCFEE70080002000000020D401002032
:1033100058640008D401002080040020FEE72DE955
:10332000F04F85B057EC106BDDE90E9B002F0C467B
:1033300090461946B8BF32463B462BF0200ABBBF29
:1033400007F100431F4600232D23B8BF1646BAF1EC
:10335000460F0B7005D0BAF1450F00D101340221A0
:1033600000E0032103AB019302AB009347EC106B29
:103370004B46224600F04CFEBBF1670F054619D1C3
:1033800018F0010F0ED005EB040800220023304690
:103390003946FDF7A1FB08B1CDF80C803022039B24
:1033A000434521D3039B109A5B1B2846136005B04D
:1033B000BDE8F08FBBF1470FE2D0BAF1460F00EB4A
:1033C0000408E2D10378302B0AD1002200233046D2
:1033D0003946FDF781FB18B9C4F10104C9F8004072
:1033E000D9F800309844D0E7591C03911A70D6E7F9
:1033F000F7B50029BABF49422D232B2309290270B2
:10340000437029DD0DF107031D460A271A46B1FB5B
:10341000F7F607FB1614303402F8014C0C46632C07
:1034200003F1FF333146F1DC3031941E03F8011C07
:10343000411C2346AB420AD30DF109039B1AAC424F
:1034400088BF002302330344181A03B0F0BD13F8F9
:10345000016B01F8016FEDE7302330318370C170EB
:10346000031DF1E72DE9F04F8DB00C46DDF85880D3
:1034700016461F46054600F0D1FC03680493184623
:10348000FCF7FEFE00230A93D8F8003005900733BE
:1034900023F0070303F1080294F818A0D4F800B051
:1034A000C8F80020D3E9008929F000430793CDF83C
:1034B0001880C4E91289DDE90601A04B4FF0FF3204
:1034C000FDF73CFB70BBDDE906019C4B4FF0FF3282
:1034D000FDF716FB30BB0022002340464946FDF7AE
:1034E00005FB10B12D2384F84330954A954BBAF172
:1034F000470F94BF90469846032323612BF00403A3
:1035000023604FF00009009733460BAA2146284656
:1035100000F0DAF9013040F096804FF0FF300DB046
:10352000BDE8F08F42464B4640464946FDF706FB54
:1035300040B14B46002BBCBF2D2384F84330824A58
:10354000824BD4E763685A1C26D1062363604BF490
:1035500080620023226003930AABCDE901A309AB8B
:103560000093616849EC108B0DF123032846FFF7A7
:10357000D6FEBAF1670F0999804615D1CB1C3BDB0B
:103580006368994238DC0A9B994255DB23682161C4
:10359000D80745D54B1C42E00AF0DF02472AD6D1B6
:1035A000002BD4D10123D1E7BAF1470F07D1C81CB2
:1035B00025DB63688B4222DB4FF0670AE3E7BAF151
:1035C000650F1FD80139524604F150000991FFF7E9
:1035D0000FFF0A9A1318012A8146236102DC226830
:1035E000D20701D5013323619DF82330002B8AD007
:1035F0002D2384F8433086E74FF0650AE2E74FF069
:10360000450ADFE7BAF1660FBDD1002963680BDD1B
:10361000216113B92268D00702D501330B4423611D
:10362000A1654FF00009DFE713B92268D20701D581
:103630000233F4E70123F2E70029D4BFC1F102020B
:1036400001221344EBE723685A0507D42369424655
:1036500031462846B84701302BD15EE7BAF1650FF5
:1036600040F2DC80D4E9120100220023FDF734FA95
:10367000002833D0364A012331462846B847013066
:103680003FF44BAFDDE90938434502DB2368D80737
:103690000FD5DDE9042331462846B84701303FF411
:1036A0003CAF4FF0000908F1FF3804F11A0AC84591
:1036B00009DC23689B0700F10281E0680B9B9842BC
:1036C000B8BF18462BE70123524631462846B84773
:1036D00001303FF422AF09F10109E8E7099B002B13
:1036E00038DC1B4A012331462846B84701303FF4F5
:1036F00014AFDDE9093959EA030302D12368D90778
:10370000D7D5DDE9042331462846B84701303FF4D8
:1037100004AF4FF0000A04F11A0B099B5B425345BA
:1037200001DC4B4693E701235A4631462846B84709
:1037300001303FF4F2AE0AF1010AEEE7FFFFEF7F3E
:10374000C8600008CC600008D0600008D4600008A1
:10375000D8600008A36DDDF828A05345A8BF5346E4
:10376000002B994636DC4FF0000B29EAE97904F189
:103770001A02A36D0693A3EB09035B4531DC099B99
:103780009A453ADC2368DA0737D4099BAAEB030988
:10379000069BAAEB03039945A8BF9946B9F1000F10
:1037A00033DC4FF0000829EAE97904F11A0B099B90
:1037B000AAEB0303A3EB090343457FF77AAF012389
:1037C0005A4631462846B84701303FF4A6AE08F1C4
:1037D0000108ECE7424631462846B8470130C2D1DD
:1037E0009BE60123314628460692B84701303FF454
:1037F00094AE069A0BF1010BBBE7DDE904233146D9
:103800002846B8470130C0D187E6069A4B46424465
:1038100031462846B8470130C3D17EE6DDF828A0FE
:10382000BAF1010F01DCDB0736D5012342463146F0
:103830002846B84701303FF470AEDDE90423314635
:103840002846B84701303FF468AED4E9120100229F
:1038500000230AF1FF3AFDF73FF9C0B9534608F1DA
:10386000010231462846B84701300CD155E6012304
:103870005A4631462846B84701303FF44EAE08F16B
:103880000108D045F3DB4B4604F15002E0E64FF06F
:10389000000804F11A0BF4E701234246E1E7012393
:1038A0004A4631462846B84701303FF436AE08F163
:1038B0000108E3680B995B1A4345F0DCFDE64FF025
:1038C000000804F11909F4E72DE9F0471646984677
:1038D0008A680B69DDF820909342B8BF13463360C5
:1038E00091F8432007460C460AB101333360236840
:1038F000990642BF336802333360256815F0060528
:1039000006D104F1190AE36832689B1AAB4226DC3F
:1039100094F843302268003B18BF012392062BD451
:1039200004F1430241463846C84701301ED023689F
:10393000226903F00603042B02BFE5683368ED1A21
:10394000A3680CBF25EAE57500259342C4BF9B1A06
:10395000ED1800261A34B5421AD1002008E00123E0
:10396000524641463846C847013003D14FF0FF3038
:10397000BDE8F0870135C6E7E1185A1C302081F810
:103980004300224494F8451082F843100233C7E7FD
:103990000123224641463846C8470130E6D0013669
:1039A000D9E700002DE9FF470F7E0C9D782F914647
:1039B00080460C469A4601F1430207D8622F0AD886
:1039C000002F00F0E080582F00F0BB8004F1420689
:1039D00084F842703AE0A7F16303152BF6D801A1F1
:1039E00051F823F03D3A0008513A0008CD3900085B
:1039F000CD390008CD390008CD390008513A00080A
:103A0000CD390008CD390008CD390008CD3900087E
:103A10006D3B0008E13A0008233B0008CD3900085F
:103A2000CD3900088F3B0008CD390008E13A000885
:103A3000CD390008CD3900082B3B00082B681A1D32
:103A40001B682A6004F1420684F842300123ABE08F
:103A5000236829681F0601F10400286001D50D685C
:103A600003E05E06FBD5B1F900506168002D7ADAFB
:103A70002D20002984F84300A1602DDA5E486D42B4
:103A80000A231646B5FBF3F103FB1157C75D06F891
:103A9000017D2F46BB420D46F4D9082B0BD123687C
:103AA000DF0708D5236961689942DEBF302306F835
:103AB000013C06F1FF36921B2261CDF800A04B4677
:103AC00003AA21464046FFF7FFFE013071D14FF0B7
:103AD000FF3004B0BDE8F08723F004032360CDE796
:103AE0002B682068191D2960050601D51D6802E0B4
:103AF0004106FBD51D8840486F2F14BF0A230823B9
:103B0000002184F843106668A660002EB9DB2168A6
:103B100021F004012160002DB3D1002EB1D1164651
:103B2000BBE7236843F0200323603448782784F8F8
:103B30004570296823680E1D2E601E0603D50D688A
:103B400004E02D48F3E75D06F9D50D88D90744BF99
:103B500043F0200323600DB11023D1E7236823F045
:103B600020032360F8E724480A23CCE72B68266863
:103B70006169181D286035061B6801D5196002E0CF
:103B80007006FBD5198000232361164695E72B6844
:103B90001A1D2A601E68626800213046FCF720FB6F
:103BA00008B1801B606063682361002384F84330A0
:103BB00083E72369324649464046D047013086D0E4
:103BC00023689B0714D4E068039B9842B8BF18464B
:103BD0007FE70123324649464046D04701303FF453
:103BE00076AF0135E36803995B1AAB42F1DCEAE793
:103BF000002504F11906F5E7DA600008EB6000081B
:103C0000002310B50446C0E90033C0E904338360E3
:103C100081814366C2818361194608225C3000F0CD
:103C2000F4F8054B6362054BA362054BE362054B59
:103C30002462236310BD00BF853D0008A73D000836
:103C4000DF3D0008033E0008024A0349034800F034
:103C500069B800BF0C000020E15800081C000020DB
:103C600041680C4B994210B5044601D001F038FE72
:103C7000A168094B994202D0204601F031FEE1686B
:103C8000064B994204D02046BDE8104001F028BE02
:103C900010BD00BF30030020980300200004002066
:103CA00010B50B4B0B4C0C4A1A6020460022042125
:103CB000FFF7A6FF04F1680001220921FFF7A0FF2A
:103CC00004F1D0000222BDE810401221FFF798BF96
:103CD0006804002030030020493C0008014800F03F
:103CE0000BB900BF71040020014800F006B900BF05
:103CF0007104002010B50446FFF7F0FF236A1BB1E2
:103D0000BDE81040FFF7F0BF044B2362044B1B6873
:103D1000002BF5D1FFF7C4FFF2E700BF613C0008BC
:103D2000680400202DE9F84307468846144600261B
:103D3000D4E90195B9F1010905D52468002CF7D122
:103D40003046BDE8F883AB89012B07D9B5F90E30B1
:103D5000013303D029463846C04706436835E9E7B2
:103D60000FB407B5064904AB086853F8042B816803
:103D7000019301F019FC03B05DF804EB04B0704747
:103D80001800002010B50C46B1F90E1000F06CF8C8
:103D90000028ABBF636DA3891B1823F48053ACBF0D
:103DA0006365A38110BD2DE9F0411F468B89DB05BA
:103DB00005460C46164605D5B1F90E100223002221
:103DC00000F040F8A389B4F90E1023F48053A381C6
:103DD00032463B462846BDE8F04100F057B810B5E2
:103DE0000C46B1F90E1000F02DF8431CA38915BF45
:103DF000606523F4805343F48053A38118BFA381EB
:103E000010BDB1F90E1000F00DB802440346934204
:103E100000D1704703F8011BF9E700000048704724
:103E20005801002038B5064D0023044608462B6093
:103E300001F064FF431C02D12B6803B1236038BD3D
:103E40006C04002038B5074D044608461146002290
:103E50002A601A4601F07AFF431C02D12B6803B195
:103E6000236038BD6C04002038B5074D0446084671
:103E7000114600222A601A4601F070FF431C02D14D
:103E80002B6803B1236038BD6C04002038B5074DA2
:103E900004460846114600222A601A46FDF74AF9F0
:103EA000431C02D12B6803B1236038BD6C04002091
:103EB00070B50D4D0D4C641BA4100026A64209D10F
:103EC0000B4D0C4C02F0C0F8641BA4100026A64257
:103ED00005D170BD55F8043B98470136EEE755F81B
:103EE000043B98470136F2E750640008506400082C
:103EF0005064000854640008704770472DE9F74F7C
:103F000003690C69A34207467EDB013C01F11408FA
:103F1000A30000F11405009305EB8403019358F806
:103F2000243055F8242001339A4208EB8409B2FB6F
:103F3000F3F62ED34FF0000AC446AE46D3465CF8E3
:103F4000043B98B206FB00A0020C1B0C06FB0323EB
:103F5000DEF8002080B292B2121A5A44DEF8000055
:103F60004FEA134A9BB2C3EB224303EB104392B2D6
:103F700042EA0342E1454EF8042B4FEA234BDED2DE
:103F8000009BEB582BB9019B043B9D421A462FD353
:103F90003C61384601F0D6F9002825DB294600208F
:103FA00058F8042BD1F800C01FFA82FE1FFA8CF3D8
:103FB000A3EB0E030344120CC2EB234202EB1C42A0
:103FC0009BB243EA0243C14541F8043B4FEA224019
:103FD000E6D255F8242005EB840322B9043B9D4228
:103FE0001A460BD33C610136304603B0BDE8F08F72
:103FF0001268043B002ACBD1013CC6E71268043B9F
:10400000002AEFD1013CEAE70020EEE700000000C3
:104010002DE9F04FC76997B08DED000B55EC104BB3
:10402000209E089183460C9212937FB9102000F0D5
:1040300065FE0246CBF81C0020B9A74BEF21A7482C
:1040400001F028FDC0E901770760C760DBF81C308C
:10405000196859B15A684A60012393408B605846E9
:1040600000F032FFDBF81C3000221A602B1EB9BFB3
:1040700023F00043019300233360019F984BBCBFA2
:1040800001223260BB4319D1129A42F20F731360BE
:10409000C7F31303234300F0DD85219B53B9914BF4
:1040A00021E0914B03930833219A1360039817B0D2
:1040B000BDE8F08F8B4B03930333F5E79DED007B59
:1040C000002251EC170B00238DED0A7BFCF704FD59
:1040D000804650B1129A01231360219B13B1219A9B
:1040E000824B1360824B0393E0E79DED0A0B14AA09
:1040F00015A9584601F0D6F9C7F30A560290002ECA
:1041000078D00B9BCDF84C80C3F31303DDE90A0193
:1041100043F07F5343F44013A6F2FF3619460022C2
:10412000744BFCF7B9F866A3D3E90023FCF76CFAEB
:1041300065A3D3E90023FCF7B1F8044630460D46E9
:10414000FCF7F8F962A3D3E90023FCF75DFA024615
:104150000B4620462946FCF7A1F804460D46FCF71D
:1041600003FD00220746002320462946FCF7BEFC3B
:1041700040B13846FCF7DEF922462B46FCF7ACFC92
:1041800000B9013F162F52D85B4B03EBC703D3E9AD
:104190000023DDE90A01FCF7A9FC002849D0013F12
:1041A00000231193149B9B1B5A1E45BFC3F10103AF
:1041B000069300230023079254BF06930793002F12
:1041C00039DB079B10973B44079300230993089B17
:1041D000092B66D8052BC4BF043B0893089BA3F1A9
:1041E0000203CCBF00240124032B65D8DFE803F0D1
:1041F0002B383657DDE914631E4406F23243202B78
:10420000C1BFC3F140039F4006F2124324FA03F3F7
:10421000D6BFC3F1200347EA030004FA03F0FCF71A
:1042200079F90122A1F1F873013E139276E7012397
:10423000B7E71190B6E7069BDB1B06937B42099319
:1042400000231093C3E700230D930C9B002B57DC36
:104250000123049399461A460C920CE00123F3E7DC
:1042600000230D930C9BFB1803F1010904934B46AB
:10427000012BB8BF0123DBF81C000021042202F14E
:1042800014059D4240D94160584600F0DDFD039081
:1042900000283CD1194B024640F2AF11CFE6012372
:1042A000DFE70124002308930D944FF0FF330493BC
:1042B000994600221223CFE701230D93F5E700BFB3
:1042C00061436F63A787D23FB3C8608B288AC63F1C
:1042D000FB799F501344D33F096100082061000817
:1042E0000000F07F05610008FC600008D96000084C
:1042F000D86000080000F83F2862000881610008CB
:104300000C9B04939946B6E701315200B7E7DBF8FE
:104310001C30039A1A60B9F10E0F6FD8002C6DD0C3
:10432000002F36DDA14B07F00F0203EBC20393ED24
:10433000007BF8058DED0E7B4FEA271417D59C4BBB
:10434000DDE90A01D3E90823FCF788FACDE9000189
:1043500004F00F044FF00308954D5CB9DDE90E231E
:10436000DDE90001FCF77AFACDE900012BE04FF01E
:104370000208F1E7E10709D5DDE90E01D5E90023DF
:10438000FCF742F9CDE90E0108F101086410083587
:10439000E3E700F007817C42844B854D04F00F0277
:1043A00003EBC203D3E90023DDE90A01FCF72CF992
:1043B000CDE90001241100234FF00208002C40F049
:1043C000E580002BD0D1119BDDE90045002B00F0EA
:1043D0004C81784B002220462946FCF787FB0028B9
:1043E00000F04381B9F1000F00F03F81049B002BE6
:1043F00000F3E480DDE90A34CDE90034159B002B9D
:1044000002DB0E2F40F342820D9A002A40F06782B1
:10441000099CDDF818800025B8F1000F0DD0079B2E
:10442000002B0ADD4345069AA8BF4346D21A0692DE
:10443000079AA8EB0308D31A0793099B0BB30D9BAC
:10444000002B00F0A682002C00F0A1822946224613
:10445000584600F0B1FE029A01460546584600F063
:1044600001FE02990646584600F02EFD099B1B1BD3
:10447000099300F09182099A3146584600F09CFE5B
:1044800002900121584600F0D7FD109B0446002BF6
:1044900000F084821A460146584600F08DFE089BC3
:1044A000012B044603DC009B002B00F07C820026DD
:1044B000236904EB8303186900F06EFD1096C0F1C8
:1044C0002000079B184410F01F0000F09182C0F1FB
:1044D0002003042B40F38182069BC0F11C0003449F
:1044E0000693079B034480440793069B002B05DD3E
:1044F00002991A46584600F0B9FE0290079B002B1D
:1045000005DD21461A46584600F0B0FE0446119BD0
:10451000002B00F076820298214600F013FF00285D
:1045200080F26F82002302990A22584600F0EEFCC6
:104530000D9B02907E1E002B00F05C82002329461A
:104540000A22584600F0E2FC049B002B054603DCDF
:10455000089B022B00F35E82B8F1000F05DD2946AF
:104560004246584600F082FE0546109B002B00F0A4
:10457000D0826968584600F067FC0746002840F082
:104580007F820D4B024640F2EF2158E5E20706D547
:10459000D5E90023FCF738F808F10108012364107D
:1045A00008350BE74FF002080DE700BF286200084E
:1045B000006200080000F03F816100082046AD4B1A
:1045C00000222946FCF720F8CDE90001049C7E1E5C
:1045D00008F101084046FBF7ADFFDDE90023FCF7D9
:1045E00013F8A54B0022FBF759FEA1F15073CDE95A
:1045F0000E010F93002C3BD1DDE900019F4B0022FF
:10460000FBF74AFE02460B46CDE90023DDE90E2307
:10461000FCF78AFA002840F05781DDE90E2101F10C
:104620000043DDE90001FCF761FA00283FF4E2AE47
:10463000002425460C9BDDF80CA0DE434FF000085B
:104640002146584600F040FC002D00F0A980B8F14A
:10465000000F05D0A84503D04146584600F034FC71
:104660002946584600F030FC9AE03E464C46B1E7F9
:10467000834B03EBC40353E90201039B1C440D9BD2
:10468000002B4AD002460B4600207E49FCF7E6F894
:10469000DDE90E23FBF700FECDE90E01DDF80CA0ED
:1046A000DDE90001FCF760FA0546FBF743FF02462F
:1046B0000B46DDE90001FBF7EFFD3035CDE90001E8
:1046C00002460B460AF8015BDDE90E01FCF72CFA05
:1046D000002865D1DDE900236B490020FBF7DCFDF4
:1046E00002460B46DDE90E01FCF71EFA002840F0F9
:1046F0000D81A24500F0EA80DDE90E015D4B00224C
:10470000FBF782FF5B4BCDE90E010022DDE90001E2
:10471000FBF77AFFCDE90001C2E7DDE90E23FBF7E5
:1047200073FFCDE90E01DDF80CA0A046DDE9000124
:10473000FCF71AFA0546FBF7FDFE02460B46DDE9DB
:104740000001FBF7A9FD30350AF8015B02460B4674
:10475000A245CDE900234FF0000223D1494BDDE90A
:104760000E01FBF79BFD02460B46DDE90001FCF75D
:10477000DBF9002840F0CA80DDE90E234149002022
:10478000FBF78AFD02460B46DDE90001FCF7AEF9B6
:1047900070B1C24608F1FF381AF8013C302BF8D04E
:1047A000374655E0334BFBF72FFFCDE90001BDE75E
:1047B000DDE90A34CDE90034159B002BFFF628AE65
:1047C0000E2F3FF725AE2E4B03EBC70393ED007B77
:1047D0000C9B002B8DED047B02DAB9F1000F64D045
:1047E000DDE90045DDF80CA0DDE90423204629467B
:1047F000FCF734F8FCF7B8F90646FBF79BFEDDE959
:104800000423FBF701FF02460B462046294606F12A
:104810003004FBF741FD0AF8014B039CAAEB0404AA
:10482000A14502460B4640F08280FBF737FDDDE9EB
:10483000042304460D46FCF777F9002865D1DDE92D
:10484000042320462946FCF747F908B1F3075CD456
:104850000299584600F038FB00238AF80030129B7A
:1048600001371F60219B002B3FF420ACC3F800A050
:104870001CE400BF0000244000001C400000144065
:10488000286200080000E03F0000F03FA24B03EB6D
:10489000C70393ED007B0C9B002B8DED047B9FDA0F
:1048A000B9F1000F9CDC7FF4C3AE9C4B0022DDE924
:1048B0000401FBF7A9FEDDE90023FCF72BF9044610
:1048C00000287FF4B5AE3E462546B4E0DDE90A3463
:1048D000CDE90034159B002B01DB0E2FD6DD089AA5
:1048E000012A36DC139A82B303F23343099CDDF8C4
:1048F0001880069A1A440692079A01211A445846CB
:10490000079200F099FB054686E53E4653469A46D7
:1049100013F8012D392A06D1039A9A42F7D1039947
:10492000302201360A701A7801321A7038E77C4B4F
:104930000022FBF769FE0022002304460D46FCF727
:10494000CBF800283FF450AF82E7149BC3F1360345
:10495000CCE7099B09F1FF34A34208DBB9F1000F52
:10496000A3EB04040EDBDDF818804B46C1E7099B7E
:10497000109A0994E31A1A44DDF8188010924B46F5
:104980000024B6E7069BA3EB09080023B1E7029ECB
:1049900071E5099A029970E5029672E5089B012B70
:1049A00017DC009BABB9019BC3F313039BB9019BBD
:1049B00023F00046360D360536B1069B01330693CB
:1049C000079B013307930126109B002B7FF470ADEA
:1049D0001096012075E50026F6E73FF486AD069AAD
:1049E0001C331A440692079A1A44984407927CE5AD
:1049F0000346F4E7049B002B2BDC089B022B09DC0D
:104A000027E0B9F1000F1DDC089B022B1ADDCDF861
:104A100010903E46049B002B7FF40CAE21460522ED
:104A2000584600F073FA01460446029800F08AFCEA
:104A300000287FF7FFADDDF80CA031230AF8013B19
:104A40000136FBE50D9BCDF810903E46002B7FF420
:104A500083AD039F02982146FFF750FA00F1300919
:104A600007F8019B039B049AFB1A9A4240F3CB8000
:104A7000029900230A22584600F048FA0290E9E71A
:104A80002A690232920005F10C010C3000F0F4FFAB
:104A900001223946584600F0E9FB039B03F1010A65
:104AA000DDE9032313440793009B03F00103A846A9
:104AB000099305460AF1FF33214602980493FFF754
:104AC0001DFA4146069000F13009029800F03AFCC8
:104AD0002A4621460746584600F050FCC268014667
:104AE00002B3584600F0F0F9002F3ADA0299012299
:104AF000584600F0BBFB2146029000F023FC002842
:104B000003DC29D119F0010F26D0B9F1390F1DD1DD
:104B100032E02846C1E700BF2862000800001440C8
:104B2000000024400A90029800F00CFC0A990C90B6
:104B3000584600F0C9F90C9A5ABB089B53B9099B17
:104B400043B9B9F1390F17D0002F05DD069B03F1EA
:104B5000310901E0002F2ADADDF810A00AF8019BE4
:104B60006EE5089B3B4304D1009B03F00103002B3F
:104B7000BCD0B9F1390F36D1049F392307F8013B76
:104B8000BA46013F1AF8013C392B5BD001333B7028
:104B900056E5002F06DB089B3B4306D1009B03F044
:104BA000010313B9002AA1DCD6E7002AE1DC079B48
:104BB0000AF8019C534557462FD0029900230A2238
:104BC000584600F0A3F9A84502904FF000034FF0BB
:104BD0000A02414658460BD100F098F98046054636
:104BE0000AF1010A66E7DDF810A009F10109B5E74D
:104BF00000F08CF92946804600230A22584600F02E
:104C000085F90546ECE7049B002BC8BF1F46039BB4
:104C1000D8BF01271F444FF00008029901225846CF
:104C200000F024FB2146029000F08CFB0028A7DC5A
:104C300002D119F0010FA3D1BA4617F8013D302B6C
:104C4000FAD0FDE4039BBB429AD1039A312301368B
:104C50001370F5E4219B002B7FF423AA014BFFF78F
:104C600042BA00BFFC60000838B50546002941D0B3
:104C700051F8043C0C1F002BB8BFE41800F0D8F822
:104C80001D4A136833B9636014602846BDE8384094
:104C900000F0D4B8A34208D9206821188B4201BF84
:104CA00019685B6809182160EDE71A465B680BB16B
:104CB000A342FAD911685018A0420BD120680144D0
:104CC000501883421160E0D118685B685360084453
:104CD0001060DAE702D90C232B60D6E72068211890
:104CE0008B4204BF19685B68636004BF09182160C8
:104CF0005460CAE738BD00BF78040020024B01466B
:104D0000186800F025B800BF1800002070B50F4EDD
:104D10000C463168054611B900F09EFE3060214610
:104D2000284600F099FE431C03D14FF0FF34204683
:104D300070BDC41C24F00304A042F8D0211A2846F8
:104D400000F08AFE0130F2D1EFE700BF74040020CA
:104D5000F8B5CD1C25F0030508350C2D38BF0C2502
:104D6000002D064601DBA94203D90C233360002045
:104D7000F8BD2E4F00F05CF83B681C4634BB29465A
:104D80003046FFF7C3FF431C04464DD13C68214623
:104D9000002940D1002C41D023683046E71800F0AC
:104DA0005BFE87423AD123680335ED1A25F00305EF
:104DB00008350C2D38BF0C2529463046FFF7A6FFD5
:104DC00001302BD023682B4423600EE02268521B55
:104DD0001ED40B2A16D96119A342256018BF596049
:104DE000636808BF396062514B60304600F026F8B6
:104DF00004F10B00231D20F00700C21A1CBF1B1A70
:104E0000A350B5E76268A3420CBF3A605A60ECE772
:104E100023466468B2E70C464968B9E70C2333605F
:104E2000304600F00BF8A2E70560DEE778040020CA
:104E30000148FFF761B800BF700400200148FFF788
:104E40005CB800BF7004002070B5C66904460D460A
:104E500076B91020FFF752FF0246E06120B9184BE7
:104E600018486B2100F016FEC0E901660660C660B6
:104E7000E669F36883B1E369DB6853F82500B8B9E4
:104E8000012101FA05F6721D9200204600F020FE75
:104E900060B1C0E901560EE021220421204600F055
:104EA00017FEE369F060DB68002BE4D1002070BDE1
:104EB000026843F825200023C0E90333F7E700BF69
:104EC000096100089261000870B5C66905460C4684
:104ED00076B91020FFF712FF0246E86120B9094BAE
:104EE00009488F2100F0D6FDC0E901660660C66062
:104EF0003CB1EB696268DB6853F82210216043F82B
:104F0000224070BD09610008926100082DE9F0415E
:104F10000D6907460C461E4601F1140C0020DCF812
:104F2000003099B202FB01611E0C0B0C02FB063330
:104F300089B2013001EB034185424CF8041B4FEA72
:104F40001346ECDC0EB3A368AB4219DC616838464B
:104F50000131FFF779FF804628B902460C4B0D4816
:104F6000BA2100F097FD2269023204F10C0192008F
:104F70000C3000F081FD21463846FFF7A5FF44467E
:104F800004EB850301355E6125612046BDE8F081B3
:104F90008161000892610008B0F5803F034636BF8A
:104FA000030400201020B3F1807F3CBF1B020830B7
:104FB000B3F1805F3CBF1B010430B3F1804F03D3DA
:104FC000002B0ADB013070479B0001D5023070478F
:104FD0005B0001D50330704720207047036802460C
:104FE00013F007000BD0D90721D4980749BF5B08FD
:104FF0009B08012013605CBF13600220704799B2C8
:1050000009B91B0C1020D9B209B908301B0A1907BD
:1050100004BF1B090430990704BF9B080230D9075D
:1050200003D45B0800F1010003D013607047002037
:10503000704720207047000010B50C460121FFF793
:1050400003FF024628B9054B054840F2451100F020
:1050500021FD01234461036110BD00BF816100088F
:10506000926100082DE9F04F14460A6923699A42BB
:10507000A8BF23460F46A4BF0C461F46D4F810A075
:10508000D7F81090A36861680AEB0906B34285B0AF
:10509000B8BF0131FFF7D8FE30B90246444B45484E
:1050A0004FF4B17100F0F6FC00F1140505EB860831
:1050B0002B460022434521D307F1140104F11402C9
:1050C00002EB8A0201EB89030293131B153B23F0C9
:1050D0000303043304F11507BA4238BF04230193D4
:1050E000029B03918B420CD8002E03DD58F8043D3F
:1050F000002B5BD0066105B0BDE8F08F43F8042BB0
:10510000D8E7B1F800A0BAF1000F24D004F1140ED2
:10511000A9464FF0000C5EF8047BD9F800301FFA66
:1051200087FB9BB20AFB0B334FEA174BD9F8007091
:1051300063444FEA174C0AFB0BC707EB13479BB2BC
:1051400043EA0743724549F8043B4FEA174CE2D85B
:10515000019B45F803C0039BB3F802900431B9F1F9
:10516000000F21D02B6804F1140CAE464FF0000A5A
:10517000BCF800B0BEF8027009FB0B7757449BB235
:1051800043EA07434EF8043B5CF8043B4FEA134AFA
:10519000BEF8003009FB0A3303EB174362454FEAC0
:1051A000134AE5D8019FEB51043599E7013E9BE78F
:1051B00081610008926100082DE9F843154612F05C
:1051C000030207460E4607D0254C013A002354F847
:1051D0002220FFF79BFE0646AD103DD0FC697CB94E
:1051E0001020FFF78BFD0246F86128B91D4B1E48C1
:1051F00040F2B31100F04EFCC0E901440460C46009
:10520000D7F81C80D8F808404CB940F271213846D4
:10521000FFF712FF0023C8F80800044603604FF0B0
:105220000009EB070AD5314622463846FFF71AFF38
:10523000314680463846FFF747FE46466D100BD094
:10524000206838B9224621463846FFF70BFF206018
:10525000C0F800900446E4E73046BDE8F88300BF9C
:10526000F461000809610008926100082DE9F04727
:105270000C464968236903EB6218A3680746914608
:105280004FEA621A08F10106B3420BDB3846FFF71A
:10529000DBFD054648B90246284B29484FF4EF711B
:1052A00000F0F8FB01315B00EEE7002300F1140190
:1052B00000F110021846534533DB20692AEAEA7AE6
:1052C00004F1140319F01F0901EB8A0103EB800CB0
:1052D0002BD0C9F1200E8A460022186800FA09F086
:1052E00010434AF8040B53F8042B9C4522FA0EF2A3
:1052F000F3D8ACEB0403153B23F00303043304F1B0
:105300001500844538BF0423CA500AB108F10206CB
:10531000013E38462E612146FFF7D6FD2846BDE8FE
:10532000F08742F8040F0133C5E7043953F8042B22
:1053300041F8042F9C45F9D8EAE700BF81610008D5
:10534000926100080A6903460069801A30B50ED1DF
:105350001433143103EB820401EB820154F8045D31
:1053600051F8042D954203D005D24FF0FF3030BDE7
:10537000A342F3D3FBE70120F9E700002DE9F74F43
:1053800089460646114648461446FFF7DBFF051ED0
:1053900012D129463046FFF757FD024628B93F4B48
:1053A00040F237213E4800F075FB0123C0E9043587
:1053B000104603B0BDE8F08FBCBF4B46A146304657
:1053C000D9F80410BABF1C4601250025FFF73CFDA3
:1053D000024618B9314B40F24521E3E7D9F8107085
:1053E0002669C56009F1100309F1140504F1140ED2
:1053F00000F1140B05EB87080EEB86060193D946E6
:105400004FF0000C019B5EF8040B53F804AF0193BE
:105410001FFA8AF3194683B2CB1A000C6344C0EB1F
:105420001A4000EB23409BB243EA0043764549F81B
:10543000043B4FEA204CE5D8331B153B23F0030314
:1054400015340433A64238BF04231D445B441E4672
:105450002C4644450ED308F10301491B21F00301FA
:10546000033DA84538BF00210B4453F8041D91B1FA
:1054700017619DE754F8041BE646080C1CFA81FCF2
:10548000714400EB2C4089B241EA004146F8041B0C
:105490004FEA204CDDE7013FE7E700BF81610008EC
:1054A000926100082DE9F7430F46012159EC108B5A
:1054B0001646FFF7C9FC044630B90246234B244880
:1054C00040F20F3100F0E6FAC9F30A55C9F31303AD
:1054D0000DB143F480130193B8F1000323D0684663
:1054E0000093FFF77BFDDDE90012D0B1C0F120038E
:1054F00002FA03F30B43C24063610192019BA36173
:10550000002B0CBF012202222261A5B1A5F2334576
:1055100005443D60C0F135003060204603B0BDE871
:10552000F0836161EAE701A8FFF758FD019B636121
:1055300020300122E8E704EB8203A0F23240386019
:105540001869FFF729FDC0EB4210E5E7816100080B
:10555000926100089368013B002B10B4936008DA55
:105560009469A34201DB0A2903D15DF8044B00F0E2
:10557000DFB91368581C1060197008465DF8044BB9
:105580007047F8B506460F461446D518AC4201D10F
:10559000002007E014F8011B3A463046FFF7DAFF17
:1055A000431CF3D1F8BD00002DE9F04F0D469DB02E
:1055B00014469846064618B1036A0BB9FEF79AFBE3
:1055C0006B6ED90705D4AB899A0502D4A86DFEF796
:1055D00093FCAB891B0701D52B699BB92946304643
:1055E00000F0E4F970B16B6EDC0704D54FF0FF30CA
:1055F0001DB0BDE8F08FAB899805F7D4A86DFEF714
:105600007CFCF3E70023099320238DF82930CDF8A3
:105610000C803023DFF8AC818DF82A304FF001097F
:1056200023469A4613F8012B0AB1252AF9D1BAEB81
:10563000040B0BD05B46224629463046FFF7A1FFFC
:10564000013000F0A780099A5A4409929AF8003074
:10565000002B00F09F8000234FF0FF32CDE905239F
:105660000AF1010A049307938DF853301A935446B4
:10567000052214F8011B5348FAF7B2FD049AD8B971
:10568000D10644BF20238DF85330130744BF2B238A
:105690008DF853309AF800302A2B15D0079A5446CB
:1056A00000204FF00A0C214611F8013B303B092B3A
:1056B0004BD9B0B1079214E0A0EB080309FA03F349
:1056C00013430493A246D2E7039B191D1B68039161
:1056D000002BBBBF5B4242F0020207930793B8BFA7
:1056E000049223782E2B0AD163782A2B32D1039B84
:1056F0001A1D1B68039243EAE37302340593DFF833
:10570000D4A0217803225046FAF76AFD38B1049BF1
:10571000A0EB0A004022824013430134049314F8A2
:10572000011B29488DF828100622FAF759FD002898
:105730003FD0264B1BBB039B073323F007030833E3
:105740000393099B3B4409936AE70CFB02320C4626
:105750000120A8E700230134059319464FF00A0CF5
:10576000204610F8012B303A092A03D9002BC6D065
:105770000591C4E70CFB012104460123F0E703ABCC
:1057800000932A46124B04A93046FDF76BFE0746EC
:10579000781CD6D16B6ED90705D4AB899A0502D493
:1057A000A86DFEF7AAFBAB895B063FF51FAF099812
:1057B0001EE703AB00932A46054B04A93046FEF7CB
:1057C000F1F8E4E7F0620008FA62000865340008C6
:1057D00083550008F6620008B1F90C202DE9F0416C
:1057E000170705460C4656D44B68002B02DC0B6CA1
:1057F000002B3DDDE66A002E3AD0002312F48052E1
:105800002F68216A2B6025D0626DA389580705D5C2
:105810006368D21A636B0BB1236CD21A216AE66AF1
:1058200000232846B047411C24D00023636023692D
:105830002360A389DA0400D56065616B2F60B9B17C
:1058400004F14403994202D02846FFF70DFA0023E1
:1058500063630DE001232846B047461C0246D4D1BD
:105860002B68002BD1D01D2B01D0162B2BD12F60F4
:1058700000202FE02A68B4F90C3042B11D2A01D073
:10588000162A22D10023636023692360D5E7626072
:1058900022692260CEE70F69002FE9D093070E68D6
:1058A00008BF4B690F6018BF0023A6EB07088B6089
:1058B000B8F1000FDCDD216AA66A43463A46284665
:1058C000B047002808DCB4F90C3043F04003A38152
:1058D0004FF0FF30BDE8F0810744A8EB0008E7E790
:1058E00038B50B6905460C4613B90025284638BD66
:1058F00018B1036A0BB9FEF7FDF9B4F90C30002BAF
:10590000F3D0626ED00704D4990502D4A06DFEF7DF
:10591000F3FA28462146FFF75FFF636EDA07054674
:10592000E4D4A3899B05E1D4A06DFEF7E6FADDE798
:10593000F8B50E461446054618B1036A0BB9FEF7D2
:10594000D9F9A369A360A3891A0701D5236943B9CB
:105950002146284600F02AF818B14FF0FF373846A4
:10596000F8BD23682269981A6369F6B28342374604
:1059700005DC21462846FFF7B3FF0028EDD1A368D8
:10598000013BA36023685A1C22601E706269431C9D
:105990009A4204D0A389DB07E1D50A2EDFD1214644
:1059A0002846FFF79DFF0028D9D0D6E738B5294B08
:1059B000054618680C4618B1036A0BB9FEF79AF948
:1059C000B4F90C30190722D4DA0607D409222A6068
:1059D00043F04003A3814FF0FF3033E0580712D566
:1059E000616B41B104F14403994202D02846FFF7AC
:1059F0003BF900236363A38923F02403A3810023DD
:105A0000636023692360A38943F00803A3812369AA
:105A10004BB9A38903F42073B3F5007F03D021466B
:105A2000284600F0C1F8B4F90C3013F001020AD096
:105A30000022A26062695242A261226942B913F057
:105A40008000C5D138BD990758BF6269A260F4E7EC
:105A50000020F7E71800002038B5064D0023044663
:105A600008462B6000F082F9431C02D12B6803B179
:105A7000236038BD6C0400200A44914200F1FF33DA
:105A800000D1704710B511F8014B03F8014F914256
:105A9000F9D110BD1FB514461A46094B1B680546BF
:105AA000D86854B9074B1C46CDE9013400912B4608
:105AB000054900F041F800F0D5F8044BF4E700BFC9
:105AC0001800002046630008186300080B630008F4
:105AD00070B5A1FB02543CB92946FFF739F90646D7
